{
    "contractName": "Faucet",
    "abi": [
        {
            "anonymous": false,
            "inputs": [
                {
                    "indexed": false,
                    "internalType": "address",
                    "name": "sender",
                    "type": "address"
                },
                {
                    "indexed": false,
                    "internalType": "uint256",
                    "name": "amount",
                    "type": "uint256"
                }
            ],
            "name": "Received",
            "type": "event"
        },
        {
            "anonymous": false,
            "inputs": [
                {
                    "indexed": false,
                    "internalType": "address",
                    "name": "user",
                    "type": "address"
                },
                {
                    "indexed": false,
                    "internalType": "uint256",
                    "name": "amount",
                    "type": "uint256"
                }
            ],
            "name": "Transferred",
            "type": "event"
        },
        {
            "inputs": [
                {
                    "internalType": "address payable",
                    "name": "user",
                    "type": "address"
                },
                {
                    "internalType": "uint256",
                    "name": "amount",
                    "type": "uint256"
                }
            ],
            "name": "adminWithdrawFunds",
            "outputs": [],
            "stateMutability": "payable",
            "type": "function"
        },
        {
            "inputs": [
                {
                    "internalType": "address",
                    "name": "",
                    "type": "address"
                }
            ],
            "name": "amountWithdrawn",
            "outputs": [
                {
                    "internalType": "uint256",
                    "name": "",
                    "type": "uint256"
                }
            ],
            "stateMutability": "view",
            "type": "function"
        },
        {
            "inputs": [],
            "name": "dailyLimit",
            "outputs": [
                {
                    "internalType": "uint256",
                    "name": "",
                    "type": "uint256"
                }
            ],
            "stateMutability": "view",
            "type": "function"
        },
        {
            "inputs": [
                {
                    "internalType": "address",
                    "name": "_user",
                    "type": "address"
                }
            ],
            "name": "getAmountWithdrawn",
            "outputs": [
                {
                    "internalType": "uint256",
                    "name": "amount",
                    "type": "uint256"
                }
            ],
            "stateMutability": "view",
            "type": "function"
        },
        {
            "inputs": [
                {
                    "internalType": "address",
                    "name": "_user",
                    "type": "address"
                }
            ],
            "name": "getLastWithdrawnAt",
            "outputs": [
                {
                    "internalType": "uint256",
                    "name": "time",
                    "type": "uint256"
                }
            ],
            "stateMutability": "view",
            "type": "function"
        },
        {
            "inputs": [
                {
                    "internalType": "uint256",
                    "name": "_limit",
                    "type": "uint256"
                }
            ],
            "name": "init",
            "outputs": [],
            "stateMutability": "nonpayable",
            "type": "function"
        },
        {
            "inputs": [
                {
                    "internalType": "address",
                    "name": "",
                    "type": "address"
                }
            ],
            "name": "lastWithdrawnAt",
            "outputs": [
                {
                    "internalType": "uint256",
                    "name": "",
                    "type": "uint256"
                }
            ],
            "stateMutability": "view",
            "type": "function"
        },
        {
            "inputs": [],
            "name": "owner",
            "outputs": [
                {
                    "internalType": "address",
                    "name": "",
                    "type": "address"
                }
            ],
            "stateMutability": "view",
            "type": "function"
        },
        {
            "inputs": [
                {
                    "internalType": "address payable",
                    "name": "user",
                    "type": "address"
                }
            ],
            "name": "request",
            "outputs": [],
            "stateMutability": "payable",
            "type": "function"
        },
        {
            "inputs": [
                {
                    "internalType": "uint256",
                    "name": "_dailyLimit",
                    "type": "uint256"
                }
            ],
            "name": "updateDailyLimit",
            "outputs": [],
            "stateMutability": "nonpayable",
            "type": "function"
        },
        {
            "inputs": [
                {
                    "internalType": "address",
                    "name": "_owner",
                    "type": "address"
                }
            ],
            "name": "updateOwner",
            "outputs": [],
            "stateMutability": "nonpayable",
            "type": "function"
        },
        {
            "stateMutability": "payable",
            "type": "receive"
        }
    ],
    "bytecode": "60806040526004805460ff1916905534801561001a57600080fd5b506109008061002a6000396000f3fe6080604052600436106100a05760003560e01c80635bff7853116100645780635bff78531461023957806367eeba0c14610265578063880cdc311461027a5780638da5cb5b146102ad578063b7b0422d146102de578063f8175d78146103085761012e565b806324a79f511461013357806327c78c421461017857806337843f45146101a057806347bcd006146101d35780634bd7fea3146102065761012e565b3661012e576001546001600160a01b031633146100f2576040805162461bcd60e51b815260206004820181905260248201526000805160206108ab833981519152604482015290519081900360640190fd5b6040805133815234602082015281517f88a5966d370b9919b20f3e2c13ff65706f196a4e32cc2c12bf57088f88525874929181900390910190a1005b600080fd5b34801561013f57600080fd5b506101666004803603602081101561015657600080fd5b50356001600160a01b0316610332565b60408051918252519081900360200190f35b61019e6004803603602081101561018e57600080fd5b50356001600160a01b0316610344565b005b3480156101ac57600080fd5b50610166600480360360208110156101c357600080fd5b50356001600160a01b0316610598565b3480156101df57600080fd5b50610166600480360360208110156101f657600080fd5b50356001600160a01b03166105dd565b34801561021257600080fd5b506101666004803603602081101561022957600080fd5b50356001600160a01b031661061e565b61019e6004803603604081101561024f57600080fd5b506001600160a01b038135169060200135610630565b34801561027157600080fd5b50610166610681565b34801561028657600080fd5b5061019e6004803603602081101561029d57600080fd5b50356001600160a01b0316610687565b3480156102b957600080fd5b506102c26106f6565b604080516001600160a01b039092168252519081900360200190f35b3480156102ea57600080fd5b5061019e6004803603602081101561030157600080fd5b5035610705565b34801561031457600080fd5b5061019e6004803603602081101561032b57600080fd5b5035610777565b60036020526000908152604090205481565b6001546001600160a01b03163314610391576040805162461bcd60e51b815260206004820181905260248201526000805160206108ab833981519152604482015290519081900360640190fd5b6001600160a01b038116600090815260036020526040902054662386f26fc100009062015180906103c990429063ffffffff6107c916565b116104b357600080546001600160a01b038416825260026020526040909120546103f9908363ffffffff61082616565b1115610443576040805162461bcd60e51b815260206004820152601460248201527311185a5b1e48131a5b5a5d08115e18d95959195960621b604482015290519081900360640190fd5b6001600160a01b03821660009081526003602052604090205461012c9061047190429063ffffffff6107c916565b10156104ae5760405162461bcd60e51b81526004018080602001828103825260238152602001806108886023913960400191505060405180910390fd5b6104dc565b6001600160a01b0382166000908152600260209081526040808320839055600390915290204290555b6040516001600160a01b0383169082156108fc029083906000818181858888f19350505050158015610512573d6000803e3d6000fd5b506001600160a01b03821660009081526002602052604090205461053c908263ffffffff61082616565b6001600160a01b03831660008181526002602090815260409182902093909355805191825291810183905281517fe6d858f14d755446648a6e0c8ab8b5a0f58ccc7920d4c910b0454e4dcd869af0929181900390910190a15050565b6001600160a01b0381166000908152600360205260408120546105bd575060006105d8565b506001600160a01b0381166000908152600360205260409020545b919050565b6001600160a01b038116600090815260026020526040812054610602575060006105d8565b506001600160a01b031660009081526002602052604090205490565b60026020526000908152604090205481565b6001546001600160a01b0316331461067d576040805162461bcd60e51b815260206004820181905260248201526000805160206108ab833981519152604482015290519081900360640190fd5b5050565b60005481565b6001546001600160a01b031633146106d4576040805162461bcd60e51b815260206004820181905260248201526000805160206108ab833981519152604482015290519081900360640190fd5b600180546001600160a01b0319166001600160a01b0392909216919091179055565b6001546001600160a01b031681565b60045460ff16610753576040805162461bcd60e51b8152602060048201526014602482015273416c726561647920696e697469616c697365642160601b604482015290519081900360640190fd5b600055600180546001600160a01b031916331781556004805460ff19169091179055565b6001546001600160a01b031633146107c4576040805162461bcd60e51b815260206004820181905260248201526000805160206108ab833981519152604482015290519081900360640190fd5b600055565b600082821115610820576040805162461bcd60e51b815260206004820152601e60248201527f536166654d6174683a207375627472616374696f6e206f766572666c6f770000604482015290519081900360640190fd5b50900390565b600082820183811015610880576040805162461bcd60e51b815260206004820152601b60248201527f536166654d6174683a206164646974696f6e206f766572666c6f770000000000604482015290519081900360640190fd5b939250505056fe4d696e696d756d207468726573686f6c642074696d65206e6f742063726f73736564214f776e61626c653a2063616c6c6572206973206e6f7420746865206f776e6572a26469706673582212201692422a8a158f3ab0d47ab9a29f511b3e1f2035fc8bd66f6b6d4b02d752d7d664736f6c63430006040033",
    "sourcePath": "c:/Users/Punit/Desktop/LaToken/faucet/contracts/Faucet.sol",
    "compiler": {
        "name": "solc",
        "version": "0.6.4+commit.1dca32f3"
    },
    "functionHashes": {
        "adminWithdrawFunds(address,uint256)": "5bff7853",
        "amountWithdrawn(address)": "4bd7fea3",
        "dailyLimit()": "67eeba0c",
        "getAmountWithdrawn(address)": "47bcd006",
        "getLastWithdrawnAt(address)": "37843f45",
        "init(uint256)": "b7b0422d",
        "lastWithdrawnAt(address)": "24a79f51",
        "owner()": "8da5cb5b",
        "request(address)": "27c78c42",
        "updateDailyLimit(uint256)": "f8175d78",
        "updateOwner(address)": "880cdc31"
    },
    "gasEstimates": {
        "creation": {
            "codeDepositCost": "460800",
            "executionCost": "21311",
            "totalCost": "482111"
        },
        "external": {
            "adminWithdrawFunds(address,uint256)": "infinite",
            "amountWithdrawn(address)": "1213",
            "dailyLimit()": "1020",
            "getAmountWithdrawn(address)": "2115",
            "getLastWithdrawnAt(address)": "2102",
            "init(uint256)": "62762",
            "lastWithdrawnAt(address)": "1125",
            "owner()": "1103",
            "request(address)": "infinite",
            "updateDailyLimit(uint256)": "infinite",
            "updateOwner(address)": "infinite"
        }
    }
}