{
  "contractName": "Faucet",
  "abi": [
    {
      "anonymous": false,
      "inputs": [
        {
          "indexed": false,
          "internalType": "address",
          "name": "sender",
          "type": "address"
        },
        {
          "indexed": false,
          "internalType": "uint256",
          "name": "amount",
          "type": "uint256"
        }
      ],
      "name": "Received",
      "type": "event"
    },
    {
      "anonymous": false,
      "inputs": [
        {
          "indexed": false,
          "internalType": "address",
          "name": "user",
          "type": "address"
        },
        {
          "indexed": false,
          "internalType": "uint256",
          "name": "amount",
          "type": "uint256"
        }
      ],
      "name": "Transferred",
      "type": "event"
    },
    {
      "inputs": [
        {
          "internalType": "address",
          "name": "",
          "type": "address"
        }
      ],
      "name": "amountWithdrawn",
      "outputs": [
        {
          "internalType": "uint256",
          "name": "",
          "type": "uint256"
        }
      ],
      "stateMutability": "view",
      "type": "function"
    },
    {
      "inputs": [],
      "name": "dailyLimit",
      "outputs": [
        {
          "internalType": "uint256",
          "name": "",
          "type": "uint256"
        }
      ],
      "stateMutability": "view",
      "type": "function"
    },
    {
      "inputs": [
        {
          "internalType": "address",
          "name": "",
          "type": "address"
        }
      ],
      "name": "lastWithdrawnAt",
      "outputs": [
        {
          "internalType": "uint256",
          "name": "",
          "type": "uint256"
        }
      ],
      "stateMutability": "view",
      "type": "function"
    },
    {
      "inputs": [],
      "name": "owner",
      "outputs": [
        {
          "internalType": "address",
          "name": "",
          "type": "address"
        }
      ],
      "stateMutability": "view",
      "type": "function"
    },
    {
      "stateMutability": "payable",
      "type": "receive"
    },
    {
      "inputs": [
        {
          "internalType": "uint256",
          "name": "_limit",
          "type": "uint256"
        }
      ],
      "name": "init",
      "outputs": [],
      "stateMutability": "nonpayable",
      "type": "function"
    },
    {
      "inputs": [
        {
          "internalType": "address",
          "name": "_user",
          "type": "address"
        }
      ],
      "name": "getAmountWithdrawn",
      "outputs": [
        {
          "internalType": "uint256",
          "name": "amount",
          "type": "uint256"
        }
      ],
      "stateMutability": "view",
      "type": "function"
    },
    {
      "inputs": [
        {
          "internalType": "address",
          "name": "_user",
          "type": "address"
        }
      ],
      "name": "getLastWithdrawnAt",
      "outputs": [
        {
          "internalType": "uint256",
          "name": "time",
          "type": "uint256"
        }
      ],
      "stateMutability": "view",
      "type": "function"
    },
    {
      "inputs": [
        {
          "internalType": "address",
          "name": "_owner",
          "type": "address"
        }
      ],
      "name": "updateOwner",
      "outputs": [],
      "stateMutability": "nonpayable",
      "type": "function"
    },
    {
      "inputs": [
        {
          "internalType": "uint256",
          "name": "_dailyLimit",
          "type": "uint256"
        }
      ],
      "name": "updateDailyLimit",
      "outputs": [],
      "stateMutability": "nonpayable",
      "type": "function"
    },
    {
      "inputs": [
        {
          "internalType": "address payable",
          "name": "user",
          "type": "address"
        },
        {
          "internalType": "uint256",
          "name": "amount",
          "type": "uint256"
        }
      ],
      "name": "adminWithdrawFunds",
      "outputs": [],
      "stateMutability": "payable",
      "type": "function"
    },
    {
      "inputs": [
        {
          "internalType": "address payable",
          "name": "user",
          "type": "address"
        }
      ],
      "name": "request",
      "outputs": [],
      "stateMutability": "payable",
      "type": "function"
    }
  ],
  "bytecode": "0x60806040526000600460006101000a81548160ff02191690831515021790555034801561002b57600080fd5b506111dd8061003b6000396000f3fe6080604052600436106100a05760003560e01c80635bff7853116100645780635bff7853146103b257806367eeba0c14610400578063880cdc311461042b5780638da5cb5b1461047c578063b7b0422d146104d3578063f8175d781461050e576101d5565b806324a79f51146101da57806327c78c421461023f57806337843f451461028357806347bcd006146102e85780634bd7fea31461034d576101d5565b366101d557600160009054906101000a900473ffffffffffffffffffffffffffffffffffffffff1673ffffffffffffffffffffffffffffffffffffffff163373ffffffffffffffffffffffffffffffffffffffff1614610168576040517f08c379a00000000000000000000000000000000000000000000000000000000081526004018080602001828103825260208152602001807f4f776e61626c653a2063616c6c6572206973206e6f7420746865206f776e657281525060200191505060405180910390fd5b7f88a5966d370b9919b20f3e2c13ff65706f196a4e32cc2c12bf57088f885258743334604051808373ffffffffffffffffffffffffffffffffffffffff1673ffffffffffffffffffffffffffffffffffffffff1681526020018281526020019250505060405180910390a1005b600080fd5b3480156101e657600080fd5b50610229600480360360208110156101fd57600080fd5b81019080803573ffffffffffffffffffffffffffffffffffffffff169060200190929190505050610549565b6040518082815260200191505060405180910390f35b6102816004803603602081101561025557600080fd5b81019080803573ffffffffffffffffffffffffffffffffffffffff169060200190929190505050610561565b005b34801561028f57600080fd5b506102d2600480360360208110156102a657600080fd5b81019080803573ffffffffffffffffffffffffffffffffffffffff169060200190929190505050610a50565b6040518082815260200191505060405180910390f35b3480156102f457600080fd5b506103376004803603602081101561030b57600080fd5b81019080803573ffffffffffffffffffffffffffffffffffffffff169060200190929190505050610aea565b6040518082815260200191505060405180910390f35b34801561035957600080fd5b5061039c6004803603602081101561037057600080fd5b81019080803573ffffffffffffffffffffffffffffffffffffffff169060200190929190505050610b84565b6040518082815260200191505060405180910390f35b6103fe600480360360408110156103c857600080fd5b81019080803573ffffffffffffffffffffffffffffffffffffffff16906020019092919080359060200190929190505050610b9c565b005b34801561040c57600080fd5b50610415610d8b565b6040518082815260200191505060405180910390f35b34801561043757600080fd5b5061047a6004803603602081101561044e57600080fd5b81019080803573ffffffffffffffffffffffffffffffffffffffff169060200190929190505050610d91565b005b34801561048857600080fd5b50610491610e98565b604051808273ffffffffffffffffffffffffffffffffffffffff1673ffffffffffffffffffffffffffffffffffffffff16815260200191505060405180910390f35b3480156104df57600080fd5b5061050c600480360360208110156104f657600080fd5b8101908080359060200190929190505050610ebe565b005b34801561051a57600080fd5b506105476004803603602081101561053157600080fd5b8101908080359060200190929190505050610fa6565b005b60036020528060005260406000206000915090505481565b3373ffffffffffffffffffffffffffffffffffffffff16600160009054906101000a900473ffffffffffffffffffffffffffffffffffffffff1673ffffffffffffffffffffffffffffffffffffffff1614610624576040517f08c379a00000000000000000000000000000000000000000000000000000000081526004018080602001828103825260208152602001807f4f776e61626c653a2063616c6c6572206973206e6f7420746865206f776e657281525060200191505060405180910390fd5b6000662386f26fc100009050804710156106a6576040517f08c379a00000000000000000000000000000000000000000000000000000000081526004018080602001828103825260128152602001807f496e737566696369656e742066756e647321000000000000000000000000000081525060200191505060405180910390fd5b620151806106fc600360008573ffffffffffffffffffffffffffffffffffffffff1673ffffffffffffffffffffffffffffffffffffffff168152602001908152602001600020544261107390919063ffffffff16565b1161087b5760005461075682600260008673ffffffffffffffffffffffffffffffffffffffff1673ffffffffffffffffffffffffffffffffffffffff168152602001908152602001600020546110fc90919063ffffffff16565b11156107ca576040517f08c379a00000000000000000000000000000000000000000000000000000000081526004018080602001828103825260158152602001807f4461696c79204c696d697420457863656564656421000000000000000000000081525060200191505060405180910390fd5b61012c61081f600360008573ffffffffffffffffffffffffffffffffffffffff1673ffffffffffffffffffffffffffffffffffffffff168152602001908152602001600020544261107390919063ffffffff16565b1015610876576040517f08c379a00000000000000000000000000000000000000000000000000000000081526004018080602001828103825260238152602001806111856023913960400191505060405180910390fd5b610905565b6000600260008473ffffffffffffffffffffffffffffffffffffffff1673ffffffffffffffffffffffffffffffffffffffff1681526020019081526020016000208190555042600360008473ffffffffffffffffffffffffffffffffffffffff1673ffffffffffffffffffffffffffffffffffffffff168152602001908152602001600020819055505b8173ffffffffffffffffffffffffffffffffffffffff166108fc829081150290604051600060405180830381858888f1935050505015801561094b573d6000803e3d6000fd5b5061099e81600260008573ffffffffffffffffffffffffffffffffffffffff1673ffffffffffffffffffffffffffffffffffffffff168152602001908152602001600020546110fc90919063ffffffff16565b600260008473ffffffffffffffffffffffffffffffffffffffff1673ffffffffffffffffffffffffffffffffffffffff168152602001908152602001600020819055507fe6d858f14d755446648a6e0c8ab8b5a0f58ccc7920d4c910b0454e4dcd869af08282604051808373ffffffffffffffffffffffffffffffffffffffff1673ffffffffffffffffffffffffffffffffffffffff1681526020018281526020019250505060405180910390a15050565b600080600360008473ffffffffffffffffffffffffffffffffffffffff1673ffffffffffffffffffffffffffffffffffffffff168152602001908152602001600020541415610aa25760009050610ae5565b600360008373ffffffffffffffffffffffffffffffffffffffff1673ffffffffffffffffffffffffffffffffffffffff1681526020019081526020016000205490505b919050565b600080600260008473ffffffffffffffffffffffffffffffffffffffff1673ffffffffffffffffffffffffffffffffffffffff168152602001908152602001600020541415610b3c5760009050610b7f565b600260008373ffffffffffffffffffffffffffffffffffffffff1673ffffffffffffffffffffffffffffffffffffffff1681526020019081526020016000205490505b919050565b60026020528060005260406000206000915090505481565b3373ffffffffffffffffffffffffffffffffffffffff16600160009054906101000a900473ffffffffffffffffffffffffffffffffffffffff1673ffffffffffffffffffffffffffffffffffffffff1614610c5f576040517f08c379a00000000000000000000000000000000000000000000000000000000081526004018080602001828103825260208152602001807f4f776e61626c653a2063616c6c6572206973206e6f7420746865206f776e657281525060200191505060405180910390fd5b80471015610cd5576040517f08c379a00000000000000000000000000000000000000000000000000000000081526004018080602001828103825260128152602001807f496e737566696369656e742066756e647321000000000000000000000000000081525060200191505060405180910390fd5b8173ffffffffffffffffffffffffffffffffffffffff166108fc829081150290604051600060405180830381858888f19350505050158015610d1b573d6000803e3d6000fd5b507fe6d858f14d755446648a6e0c8ab8b5a0f58ccc7920d4c910b0454e4dcd869af08282604051808373ffffffffffffffffffffffffffffffffffffffff1673ffffffffffffffffffffffffffffffffffffffff1681526020018281526020019250505060405180910390a15050565b60005481565b3373ffffffffffffffffffffffffffffffffffffffff16600160009054906101000a900473ffffffffffffffffffffffffffffffffffffffff1673ffffffffffffffffffffffffffffffffffffffff1614610e54576040517f08c379a00000000000000000000000000000000000000000000000000000000081526004018080602001828103825260208152602001807f4f776e61626c653a2063616c6c6572206973206e6f7420746865206f776e657281525060200191505060405180910390fd5b80600160006101000a81548173ffffffffffffffffffffffffffffffffffffffff021916908373ffffffffffffffffffffffffffffffffffffffff16021790555050565b600160009054906101000a900473ffffffffffffffffffffffffffffffffffffffff1681565b600460009054906101000a900460ff16610f40576040517f08c379a00000000000000000000000000000000000000000000000000000000081526004018080602001828103825260148152602001807f416c726561647920696e697469616c697365642100000000000000000000000081525060200191505060405180910390fd5b8060008190555033600160006101000a81548173ffffffffffffffffffffffffffffffffffffffff021916908373ffffffffffffffffffffffffffffffffffffffff1602179055506001600460006101000a81548160ff02191690831515021790555050565b3373ffffffffffffffffffffffffffffffffffffffff16600160009054906101000a900473ffffffffffffffffffffffffffffffffffffffff1673ffffffffffffffffffffffffffffffffffffffff1614611069576040517f08c379a00000000000000000000000000000000000000000000000000000000081526004018080602001828103825260208152602001807f4f776e61626c653a2063616c6c6572206973206e6f7420746865206f776e657281525060200191505060405180910390fd5b8060008190555050565b6000828211156110eb576040517f08c379a000000000000000000000000000000000000000000000000000000000815260040180806020018281038252601e8152602001807f536166654d6174683a207375627472616374696f6e206f766572666c6f77000081525060200191505060405180910390fd5b600082840390508091505092915050565b60008082840190508381101561117a576040517f08c379a000000000000000000000000000000000000000000000000000000000815260040180806020018281038252601b8152602001807f536166654d6174683a206164646974696f6e206f766572666c6f77000000000081525060200191505060405180910390fd5b809150509291505056fe4d696e696d756d207468726573686f6c642074696d65206e6f742063726f7373656421a2646970667358221220e45ca6caddd027e40cbf9a9edd76a1e84f3f9234a376e2658987f0f917f0f4e964736f6c63430006040033",
  "source": "pragma solidity 0.6.4;\r\n\r\nimport \"./SafeMath.sol\";\r\n\r\ncontract Faucet {\r\n    using SafeMath for uint256;\r\n    uint256 public dailyLimit;\r\n    address public owner;\r\n    //mapping for amount withdrawn and timestamp of withdrawal\r\n    mapping(address => uint256) public amountWithdrawn;\r\n    mapping(address => uint256) public lastWithdrawnAt;\r\n    bool private initialised = false;\r\n\r\n    event Received(address sender, uint256 amount);\r\n    event Transferred(address user, uint256 amount);\r\n\r\n    function init(uint256 _limit) external {\r\n        require(initialised, \"Already initialised!\");\r\n        dailyLimit = _limit;\r\n        owner = msg.sender;\r\n        initialised = true;\r\n    }\r\n\r\n    modifier onlyOwner() {\r\n        require(owner == msg.sender, \"Ownable: caller is not the owner\");\r\n        _;\r\n    }\r\n\r\n    function getAmountWithdrawn(address _user)\r\n        external\r\n        view\r\n        returns (uint256 amount)\r\n    {\r\n        if (amountWithdrawn[_user] == 0) return 0;\r\n        amount = amountWithdrawn[_user];\r\n    }\r\n\r\n    function getLastWithdrawnAt(address _user)\r\n        external\r\n        view\r\n        returns (uint256 time)\r\n    {\r\n        if (lastWithdrawnAt[_user] == 0) return 0;\r\n        time = lastWithdrawnAt[_user];\r\n    }\r\n\r\n    function updateOwner(address _owner) external onlyOwner {\r\n        owner = _owner;\r\n    }\r\n\r\n    function updateDailyLimit(uint256 _dailyLimit) external onlyOwner {\r\n        dailyLimit = _dailyLimit;\r\n    }\r\n\r\n    receive() external payable {\r\n        require(msg.sender == owner, \"Ownable: caller is not the owner\");\r\n        emit Received(msg.sender, msg.value);\r\n    }\r\n\r\n    function adminWithdrawFunds(address payable user, uint256 amount)\r\n        external\r\n        payable\r\n        onlyOwner\r\n    {\r\n        require(address(this).balance >= amount, \"Insuficient funds!\");\r\n        user.transfer(amount);\r\n        emit Transferred(user, amount);\r\n    }\r\n\r\n    function request(address payable user) external payable onlyOwner {\r\n        uint256 amount = 1e16;\r\n        require(address(this).balance >= amount, \"Insuficient funds!\");\r\n\r\n        if (now.sub(lastWithdrawnAt[user]) <= 86400) {\r\n            require(\r\n                amountWithdrawn[user].add(amount) <= dailyLimit,\r\n                \"Daily Limit Exceeded!\"\r\n            );\r\n            require(\r\n                now.sub(lastWithdrawnAt[user]) >= 300,\r\n                \"Minimum threshold time not crossed!\"\r\n            );\r\n        } else {\r\n            amountWithdrawn[user] = 0;\r\n            lastWithdrawnAt[user] = now;\r\n        }\r\n        user.transfer(amount);\r\n        amountWithdrawn[user] = amountWithdrawn[user].add(amount);\r\n        emit Transferred(user, amount);\r\n    }\r\n}\r\n",
  "sourcePath": "/mnt/c/Users/Punit/Desktop/LaToken/faucet/contracts/Faucet.sol",
  "compiler": {
    "name": "solc",
    "version": "0.6.4+commit.1dca32f3.Emscripten.clang"
  },
  "schemaVersion": "3.4.3",
  "updatedAt": "2021-10-27T12:38:17.651Z",
  "devdoc": {
    "methods": {}
  },
  "userdoc": {
    "methods": {}
  }
}